{
  "_format": "hh-sol-artifact-1",
  "contractName": "Crowdfunding",
  "sourceName": "contracts/Lock.sol",
  "abi": [
    {
      "inputs": [
        {
          "internalType": "uint256",
          "name": "",
          "type": "uint256"
        }
      ],
      "name": "campaigns",
      "outputs": [
        {
          "internalType": "address",
          "name": "owner",
          "type": "address"
        },
        {
          "internalType": "string",
          "name": "title",
          "type": "string"
        },
        {
          "internalType": "string",
          "name": "description",
          "type": "string"
        },
        {
          "internalType": "uint256",
          "name": "target",
          "type": "uint256"
        },
        {
          "internalType": "uint256",
          "name": "deadline",
          "type": "uint256"
        },
        {
          "internalType": "uint256",
          "name": "amountCollected",
          "type": "uint256"
        },
        {
          "internalType": "string",
          "name": "image",
          "type": "string"
        }
      ],
      "stateMutability": "view",
      "type": "function"
    },
    {
      "inputs": [
        {
          "internalType": "address",
          "name": "_owner",
          "type": "address"
        },
        {
          "internalType": "string",
          "name": "_title",
          "type": "string"
        },
        {
          "internalType": "string",
          "name": "_description",
          "type": "string"
        },
        {
          "internalType": "uint256",
          "name": "_target",
          "type": "uint256"
        },
        {
          "internalType": "uint256",
          "name": "_deadline",
          "type": "uint256"
        },
        {
          "internalType": "string",
          "name": "_image",
          "type": "string"
        }
      ],
      "name": "createCampaign",
      "outputs": [
        {
          "internalType": "uint256",
          "name": "",
          "type": "uint256"
        }
      ],
      "stateMutability": "nonpayable",
      "type": "function"
    },
    {
      "inputs": [
        {
          "internalType": "uint256",
          "name": "_id",
          "type": "uint256"
        }
      ],
      "name": "donatetoCampaign",
      "outputs": [],
      "stateMutability": "payable",
      "type": "function"
    },
    {
      "inputs": [],
      "name": "getCampaigns",
      "outputs": [
        {
          "components": [
            {
              "internalType": "address",
              "name": "owner",
              "type": "address"
            },
            {
              "internalType": "string",
              "name": "title",
              "type": "string"
            },
            {
              "internalType": "string",
              "name": "description",
              "type": "string"
            },
            {
              "internalType": "uint256",
              "name": "target",
              "type": "uint256"
            },
            {
              "internalType": "uint256",
              "name": "deadline",
              "type": "uint256"
            },
            {
              "internalType": "uint256",
              "name": "amountCollected",
              "type": "uint256"
            },
            {
              "internalType": "string",
              "name": "image",
              "type": "string"
            },
            {
              "internalType": "address[]",
              "name": "donators",
              "type": "address[]"
            },
            {
              "internalType": "uint256[]",
              "name": "donations",
              "type": "uint256[]"
            }
          ],
          "internalType": "struct Crowdfunding.Campaign[]",
          "name": "",
          "type": "tuple[]"
        }
      ],
      "stateMutability": "view",
      "type": "function"
    },
    {
      "inputs": [
        {
          "internalType": "uint256",
          "name": "_id",
          "type": "uint256"
        }
      ],
      "name": "getDonators",
      "outputs": [
        {
          "internalType": "address[]",
          "name": "",
          "type": "address[]"
        },
        {
          "internalType": "uint256[]",
          "name": "",
          "type": "uint256[]"
        }
      ],
      "stateMutability": "view",
      "type": "function"
    },
    {
      "inputs": [],
      "name": "numberofCampaigns",
      "outputs": [
        {
          "internalType": "uint256",
          "name": "",
          "type": "uint256"
        }
      ],
      "stateMutability": "view",
      "type": "function"
    }
  ],
  "bytecode": "0x6080604052600060015534801561001557600080fd5b5061192b806100256000396000f3fe6080604052600436106100555760003560e01c80630fa91fa91461005a578063141961bc146100985780639943e3a1146100db578063a6b0363314610118578063a7d69f5b14610143578063e21191fb1461015f575b600080fd5b34801561006657600080fd5b50610081600480360381019061007c9190610ba3565b61018a565b60405161008f929190610d7e565b60405180910390f35b3480156100a457600080fd5b506100bf60048036038101906100ba9190610ba3565b61029a565b6040516100d29796959493929190610e63565b60405180910390f35b3480156100e757600080fd5b5061010260048036038101906100fd9190611048565b610494565b60405161010f9190611129565b60405180910390f35b34801561012457600080fd5b5061012d6105bb565b60405161013a919061140f565b60405180910390f35b61015d60048036038101906101589190610ba3565b610991565b005b34801561016b57600080fd5b50610174610af1565b6040516101819190611129565b60405180910390f35b6060806000808481526020019081526020016000206007016000808581526020019081526020016000206008018180548060200260200160405190810160405280929190818152602001828054801561023857602002820191906000526020600020905b8160009054906101000a900473ffffffffffffffffffffffffffffffffffffffff1673ffffffffffffffffffffffffffffffffffffffff16815260200190600101908083116101ee575b505050505091508080548060200260200160405190810160405280929190818152602001828054801561028a57602002820191906000526020600020905b815481526020019060010190808311610276575b5050505050905091509150915091565b60006020528060005260406000206000915090508060000160009054906101000a900473ffffffffffffffffffffffffffffffffffffffff16908060010180546102e390611460565b80601f016020809104026020016040519081016040528092919081815260200182805461030f90611460565b801561035c5780601f106103315761010080835404028352916020019161035c565b820191906000526020600020905b81548152906001019060200180831161033f57829003601f168201915b50505050509080600201805461037190611460565b80601f016020809104026020016040519081016040528092919081815260200182805461039d90611460565b80156103ea5780601f106103bf576101008083540402835291602001916103ea565b820191906000526020600020905b8154815290600101906020018083116103cd57829003601f168201915b50505050509080600301549080600401549080600501549080600601805461041190611460565b80601f016020809104026020016040519081016040528092919081815260200182805461043d90611460565b801561048a5780601f1061045f5761010080835404028352916020019161048a565b820191906000526020600020905b81548152906001019060200180831161046d57829003601f168201915b5050505050905087565b60008060008060015481526020019081526020016000209050428160040154106104f3576040517f08c379a00000000000000000000000000000000000000000000000000000000081526004016104ea90611503565b60405180910390fd5b878160000160006101000a81548173ffffffffffffffffffffffffffffffffffffffff021916908373ffffffffffffffffffffffffffffffffffffffff1602179055508681600101908161054791906116cf565b508581600201908161055991906116cf565b50848160030181905550838160040181905550600081600501819055508281600601908161058791906116cf565b506001600081548092919061059b906117d0565b9190505550600180546105ae9190611818565b9150509695505050505050565b6060600060015467ffffffffffffffff8111156105db576105da610f1d565b5b60405190808252806020026020018201604052801561061457816020015b610601610af7565b8152602001906001900390816105f95790505b50905060005b600154811015610989576000806000838152602001908152602001600020905080604051806101200160405290816000820160009054906101000a900473ffffffffffffffffffffffffffffffffffffffff1673ffffffffffffffffffffffffffffffffffffffff1673ffffffffffffffffffffffffffffffffffffffff1681526020016001820180546106ad90611460565b80601f01602080910402602001604051908101604052809291908181526020018280546106d990611460565b80156107265780601f106106fb57610100808354040283529160200191610726565b820191906000526020600020905b81548152906001019060200180831161070957829003601f168201915b5050505050815260200160028201805461073f90611460565b80601f016020809104026020016040519081016040528092919081815260200182805461076b90611460565b80156107b85780601f1061078d576101008083540402835291602001916107b8565b820191906000526020600020905b81548152906001019060200180831161079b57829003601f168201915b505050505081526020016003820154815260200160048201548152602001600582015481526020016006820180546107ef90611460565b80601f016020809104026020016040519081016040528092919081815260200182805461081b90611460565b80156108685780601f1061083d57610100808354040283529160200191610868565b820191906000526020600020905b81548152906001019060200180831161084b57829003601f168201915b50505050508152602001600782018054806020026020016040519081016040528092919081815260200182805480156108f657602002820191906000526020600020905b8160009054906101000a900473ffffffffffffffffffffffffffffffffffffffff1673ffffffffffffffffffffffffffffffffffffffff16815260200190600101908083116108ac575b505050505081526020016008820180548060200260200160405190810160405280929190818152602001828054801561094e57602002820191906000526020600020905b81548152602001906001019080831161093a575b50505050508152505083838151811061096a5761096961184c565b5b6020026020010181905250508080610981906117d0565b91505061061a565b508091505090565b60003490506000806000848152602001908152602001600020905080600701339080600181540180825580915050600190039060005260206000200160009091909190916101000a81548173ffffffffffffffffffffffffffffffffffffffff021916908373ffffffffffffffffffffffffffffffffffffffff1602179055508060080182908060018154018082558091505060019003906000526020600020016000909190919091505560008160000160009054906101000a900473ffffffffffffffffffffffffffffffffffffffff1673ffffffffffffffffffffffffffffffffffffffff1683604051610a86906118ac565b60006040518083038185875af1925050503d8060008114610ac3576040519150601f19603f3d011682016040523d82523d6000602084013e610ac8565b606091505b505090508015610aeb57828260050154610ae291906118c1565b82600501819055505b50505050565b60015481565b604051806101200160405280600073ffffffffffffffffffffffffffffffffffffffff16815260200160608152602001606081526020016000815260200160008152602001600081526020016060815260200160608152602001606081525090565b6000604051905090565b600080fd5b600080fd5b6000819050919050565b610b8081610b6d565b8114610b8b57600080fd5b50565b600081359050610b9d81610b77565b92915050565b600060208284031215610bb957610bb8610b63565b5b6000610bc784828501610b8e565b91505092915050565b600081519050919050565b600082825260208201905092915050565b6000819050602082019050919050565b600073ffffffffffffffffffffffffffffffffffffffff82169050919050565b6000610c2782610bfc565b9050919050565b610c3781610c1c565b82525050565b6000610c498383610c2e565b60208301905092915050565b6000602082019050919050565b6000610c6d82610bd0565b610c778185610bdb565b9350610c8283610bec565b8060005b83811015610cb3578151610c9a8882610c3d565b9750610ca583610c55565b925050600181019050610c86565b5085935050505092915050565b600081519050919050565b600082825260208201905092915050565b6000819050602082019050919050565b610cf581610b6d565b82525050565b6000610d078383610cec565b60208301905092915050565b6000602082019050919050565b6000610d2b82610cc0565b610d358185610ccb565b9350610d4083610cdc565b8060005b83811015610d71578151610d588882610cfb565b9750610d6383610d13565b925050600181019050610d44565b5085935050505092915050565b60006040820190508181036000830152610d988185610c62565b90508181036020830152610dac8184610d20565b90509392505050565b610dbe81610c1c565b82525050565b600081519050919050565b600082825260208201905092915050565b60005b83811015610dfe578082015181840152602081019050610de3565b60008484015250505050565b6000601f19601f8301169050919050565b6000610e2682610dc4565b610e308185610dcf565b9350610e40818560208601610de0565b610e4981610e0a565b840191505092915050565b610e5d81610b6d565b82525050565b600060e082019050610e78600083018a610db5565b8181036020830152610e8a8189610e1b565b90508181036040830152610e9e8188610e1b565b9050610ead6060830187610e54565b610eba6080830186610e54565b610ec760a0830185610e54565b81810360c0830152610ed98184610e1b565b905098975050505050505050565b610ef081610c1c565b8114610efb57600080fd5b50565b600081359050610f0d81610ee7565b92915050565b600080fd5b600080fd5b7f4e487b7100000000000000000000000000000000000000000000000000000000600052604160045260246000fd5b610f5582610e0a565b810181811067ffffffffffffffff82111715610f7457610f73610f1d565b5b80604052505050565b6000610f87610b59565b9050610f938282610f4c565b919050565b600067ffffffffffffffff821115610fb357610fb2610f1d565b5b610fbc82610e0a565b9050602081019050919050565b82818337600083830152505050565b6000610feb610fe684610f98565b610f7d565b90508281526020810184848401111561100757611006610f18565b5b611012848285610fc9565b509392505050565b600082601f83011261102f5761102e610f13565b5b813561103f848260208601610fd8565b91505092915050565b60008060008060008060c0878903121561106557611064610b63565b5b600061107389828a01610efe565b965050602087013567ffffffffffffffff81111561109457611093610b68565b5b6110a089828a0161101a565b955050604087013567ffffffffffffffff8111156110c1576110c0610b68565b5b6110cd89828a0161101a565b94505060606110de89828a01610b8e565b93505060806110ef89828a01610b8e565b92505060a087013567ffffffffffffffff8111156111105761110f610b68565b5b61111c89828a0161101a565b9150509295509295509295565b600060208201905061113e6000830184610e54565b92915050565b600081519050919050565b600082825260208201905092915050565b6000819050602082019050919050565b600082825260208201905092915050565b600061118c82610dc4565b6111968185611170565b93506111a6818560208601610de0565b6111af81610e0a565b840191505092915050565b600082825260208201905092915050565b60006111d682610bd0565b6111e081856111ba565b93506111eb83610bec565b8060005b8381101561121c5781516112038882610c3d565b975061120e83610c55565b9250506001810190506111ef565b5085935050505092915050565b600082825260208201905092915050565b600061124582610cc0565b61124f8185611229565b935061125a83610cdc565b8060005b8381101561128b5781516112728882610cfb565b975061127d83610d13565b92505060018101905061125e565b5085935050505092915050565b6000610120830160008301516112b16000860182610c2e565b50602083015184820360208601526112c98282611181565b915050604083015184820360408601526112e38282611181565b91505060608301516112f86060860182610cec565b50608083015161130b6080860182610cec565b5060a083015161131e60a0860182610cec565b5060c083015184820360c08601526113368282611181565b91505060e083015184820360e086015261135082826111cb565b91505061010083015184820361010086015261136c828261123a565b9150508091505092915050565b60006113858383611298565b905092915050565b6000602082019050919050565b60006113a582611144565b6113af818561114f565b9350836020820285016113c185611160565b8060005b858110156113fd57848403895281516113de8582611379565b94506113e98361138d565b925060208a019950506001810190506113c5565b50829750879550505050505092915050565b60006020820190508181036000830152611429818461139a565b905092915050565b7f4e487b7100000000000000000000000000000000000000000000000000000000600052602260045260246000fd5b6000600282049050600182168061147857607f821691505b60208210810361148b5761148a611431565b5b50919050565b7f54686520646561646c696e652073686f756c642062652061206461746520696e60008201527f20746865206675747572652e0000000000000000000000000000000000000000602082015250565b60006114ed602c83610dcf565b91506114f882611491565b604082019050919050565b6000602082019050818103600083015261151c816114e0565b9050919050565b60008190508160005260206000209050919050565b60006020601f8301049050919050565b600082821b905092915050565b6000600883026115857fffffffffffffffffffffffffffffffffffffffffffffffffffffffffffffffff82611548565b61158f8683611548565b95508019841693508086168417925050509392505050565b6000819050919050565b60006115cc6115c76115c284610b6d565b6115a7565b610b6d565b9050919050565b6000819050919050565b6115e6836115b1565b6115fa6115f2826115d3565b848454611555565b825550505050565b600090565b61160f611602565b61161a8184846115dd565b505050565b5b8181101561163e57611633600082611607565b600181019050611620565b5050565b601f8211156116835761165481611523565b61165d84611538565b8101602085101561166c578190505b61168061167885611538565b83018261161f565b50505b505050565b600082821c905092915050565b60006116a660001984600802611688565b1980831691505092915050565b60006116bf8383611695565b9150826002028217905092915050565b6116d882610dc4565b67ffffffffffffffff8111156116f1576116f0610f1d565b5b6116fb8254611460565b611706828285611642565b600060209050601f8311600181146117395760008415611727578287015190505b61173185826116b3565b865550611799565b601f19841661174786611523565b60005b8281101561176f5784890151825560018201915060208501945060208101905061174a565b8683101561178c5784890151611788601f891682611695565b8355505b6001600288020188555050505b505050505050565b7f4e487b7100000000000000000000000000000000000000000000000000000000600052601160045260246000fd5b60006117db82610b6d565b91507fffffffffffffffffffffffffffffffffffffffffffffffffffffffffffffffff820361180d5761180c6117a1565b5b600182019050919050565b600061182382610b6d565b915061182e83610b6d565b9250828203905081811115611846576118456117a1565b5b92915050565b7f4e487b7100000000000000000000000000000000000000000000000000000000600052603260045260246000fd5b600081905092915050565b50565b600061189660008361187b565b91506118a182611886565b600082019050919050565b60006118b782611889565b9150819050919050565b60006118cc82610b6d565b91506118d783610b6d565b92508282019050808211156118ef576118ee6117a1565b5b9291505056fea26469706673582212208c952066167d91b87f25457554feb7b12937cd5d49b1395b53c70441fe84d96864736f6c63430008110033",
  "linkReferences": {},
  "deployedLinkReferences": {}
}